{
  "contractName": "Certs",
  "abi": [
    {
      "anonymous": false,
      "inputs": [
        {
          "indexed": false,
          "internalType": "address",
          "name": "schoolId",
          "type": "address"
        },
        {
          "indexed": false,
          "internalType": "uint256",
          "name": "certId",
          "type": "uint256"
        }
      ],
      "name": "CertAdded",
      "type": "event"
    },
    {
      "anonymous": false,
      "inputs": [
        {
          "indexed": false,
          "internalType": "address",
          "name": "schoolId",
          "type": "address"
        },
        {
          "indexed": false,
          "internalType": "uint256[]",
          "name": "certIds",
          "type": "uint256[]"
        }
      ],
      "name": "CertsAdded",
      "type": "event"
    },
    {
      "inputs": [
        {
          "components": [
            {
              "internalType": "string",
              "name": "id",
              "type": "string"
            },
            {
              "internalType": "string",
              "name": "name",
              "type": "string"
            },
            {
              "internalType": "string",
              "name": "email",
              "type": "string"
            }
          ],
          "internalType": "struct CertLib.Student[]",
          "name": "_students",
          "type": "tuple[]"
        }
      ],
      "name": "addStudents",
      "outputs": [],
      "stateMutability": "nonpayable",
      "type": "function"
    },
    {
      "inputs": [
        {
          "components": [
            {
              "internalType": "string",
              "name": "id",
              "type": "string"
            },
            {
              "internalType": "string",
              "name": "name",
              "type": "string"
            },
            {
              "internalType": "string",
              "name": "email",
              "type": "string"
            }
          ],
          "internalType": "struct CertLib.Student",
          "name": "_student",
          "type": "tuple"
        }
      ],
      "name": "addStudent",
      "outputs": [],
      "stateMutability": "nonpayable",
      "type": "function"
    },
    {
      "inputs": [
        {
          "internalType": "address",
          "name": "schoolId",
          "type": "address"
        },
        {
          "internalType": "string",
          "name": "studentId",
          "type": "string"
        }
      ],
      "name": "getStudent",
      "outputs": [
        {
          "components": [
            {
              "internalType": "string",
              "name": "id",
              "type": "string"
            },
            {
              "internalType": "string",
              "name": "name",
              "type": "string"
            },
            {
              "internalType": "string",
              "name": "email",
              "type": "string"
            }
          ],
          "internalType": "struct CertLib.Student",
          "name": "",
          "type": "tuple"
        }
      ],
      "stateMutability": "view",
      "type": "function",
      "constant": true
    },
    {
      "inputs": [
        {
          "components": [
            {
              "internalType": "string",
              "name": "id",
              "type": "string"
            },
            {
              "internalType": "string",
              "name": "name",
              "type": "string"
            },
            {
              "internalType": "string",
              "name": "description",
              "type": "string"
            }
          ],
          "internalType": "struct CertLib.Subject[]",
          "name": "_subjects",
          "type": "tuple[]"
        }
      ],
      "name": "addSubjects",
      "outputs": [],
      "stateMutability": "nonpayable",
      "type": "function"
    },
    {
      "inputs": [
        {
          "components": [
            {
              "internalType": "string",
              "name": "id",
              "type": "string"
            },
            {
              "internalType": "string",
              "name": "name",
              "type": "string"
            },
            {
              "internalType": "string",
              "name": "description",
              "type": "string"
            }
          ],
          "internalType": "struct CertLib.Subject",
          "name": "_subject",
          "type": "tuple"
        }
      ],
      "name": "addSubject",
      "outputs": [],
      "stateMutability": "nonpayable",
      "type": "function"
    },
    {
      "inputs": [
        {
          "internalType": "address",
          "name": "schoolId",
          "type": "address"
        },
        {
          "internalType": "string",
          "name": "subjectId",
          "type": "string"
        }
      ],
      "name": "getSubject",
      "outputs": [
        {
          "components": [
            {
              "internalType": "string",
              "name": "id",
              "type": "string"
            },
            {
              "internalType": "string",
              "name": "name",
              "type": "string"
            },
            {
              "internalType": "string",
              "name": "description",
              "type": "string"
            }
          ],
          "internalType": "struct CertLib.Subject",
          "name": "",
          "type": "tuple"
        }
      ],
      "stateMutability": "view",
      "type": "function",
      "constant": true
    },
    {
      "inputs": [
        {
          "components": [
            {
              "internalType": "uint256",
              "name": "id",
              "type": "uint256"
            },
            {
              "internalType": "address",
              "name": "schoolId",
              "type": "address"
            },
            {
              "internalType": "string",
              "name": "regNo",
              "type": "string"
            },
            {
              "internalType": "uint256",
              "name": "batchId",
              "type": "uint256"
            },
            {
              "internalType": "string",
              "name": "batchRegNo",
              "type": "string"
            },
            {
              "internalType": "string",
              "name": "conferredOn",
              "type": "string"
            },
            {
              "internalType": "string",
              "name": "dateOfBirth",
              "type": "string"
            },
            {
              "internalType": "string",
              "name": "yearOfGraduation",
              "type": "string"
            },
            {
              "internalType": "string",
              "name": "majorIn",
              "type": "string"
            },
            {
              "internalType": "string",
              "name": "degreeOf",
              "type": "string"
            },
            {
              "internalType": "string",
              "name": "degreeClassification",
              "type": "string"
            },
            {
              "internalType": "string",
              "name": "modeOfStudy",
              "type": "string"
            },
            {
              "internalType": "string",
              "name": "createdIn",
              "type": "string"
            },
            {
              "internalType": "string",
              "name": "createdAt",
              "type": "string"
            },
            {
              "internalType": "address[]",
              "name": "issuers",
              "type": "address[]"
            }
          ],
          "internalType": "struct CertLib.Cert[]",
          "name": "_certs",
          "type": "tuple[]"
        }
      ],
      "name": "addCerts",
      "outputs": [],
      "stateMutability": "nonpayable",
      "type": "function"
    },
    {
      "inputs": [
        {
          "components": [
            {
              "internalType": "uint256",
              "name": "id",
              "type": "uint256"
            },
            {
              "internalType": "address",
              "name": "schoolId",
              "type": "address"
            },
            {
              "internalType": "string",
              "name": "regNo",
              "type": "string"
            },
            {
              "internalType": "uint256",
              "name": "batchId",
              "type": "uint256"
            },
            {
              "internalType": "string",
              "name": "batchRegNo",
              "type": "string"
            },
            {
              "internalType": "string",
              "name": "conferredOn",
              "type": "string"
            },
            {
              "internalType": "string",
              "name": "dateOfBirth",
              "type": "string"
            },
            {
              "internalType": "string",
              "name": "yearOfGraduation",
              "type": "string"
            },
            {
              "internalType": "string",
              "name": "majorIn",
              "type": "string"
            },
            {
              "internalType": "string",
              "name": "degreeOf",
              "type": "string"
            },
            {
              "internalType": "string",
              "name": "degreeClassification",
              "type": "string"
            },
            {
              "internalType": "string",
              "name": "modeOfStudy",
              "type": "string"
            },
            {
              "internalType": "string",
              "name": "createdIn",
              "type": "string"
            },
            {
              "internalType": "string",
              "name": "createdAt",
              "type": "string"
            },
            {
              "internalType": "address[]",
              "name": "issuers",
              "type": "address[]"
            }
          ],
          "internalType": "struct CertLib.Cert",
          "name": "_cert",
          "type": "tuple"
        }
      ],
      "name": "addCert",
      "outputs": [],
      "stateMutability": "nonpayable",
      "type": "function"
    },
    {
      "inputs": [
        {
          "internalType": "address",
          "name": "schoolId",
          "type": "address"
        },
        {
          "internalType": "uint256",
          "name": "certId",
          "type": "uint256"
        }
      ],
      "name": "getCert",
      "outputs": [
        {
          "components": [
            {
              "internalType": "uint256",
              "name": "id",
              "type": "uint256"
            },
            {
              "internalType": "address",
              "name": "schoolId",
              "type": "address"
            },
            {
              "internalType": "string",
              "name": "regNo",
              "type": "string"
            },
            {
              "internalType": "uint256",
              "name": "batchId",
              "type": "uint256"
            },
            {
              "internalType": "string",
              "name": "batchRegNo",
              "type": "string"
            },
            {
              "internalType": "string",
              "name": "conferredOn",
              "type": "string"
            },
            {
              "internalType": "string",
              "name": "dateOfBirth",
              "type": "string"
            },
            {
              "internalType": "string",
              "name": "yearOfGraduation",
              "type": "string"
            },
            {
              "internalType": "string",
              "name": "majorIn",
              "type": "string"
            },
            {
              "internalType": "string",
              "name": "degreeOf",
              "type": "string"
            },
            {
              "internalType": "string",
              "name": "degreeClassification",
              "type": "string"
            },
            {
              "internalType": "string",
              "name": "modeOfStudy",
              "type": "string"
            },
            {
              "internalType": "string",
              "name": "createdIn",
              "type": "string"
            },
            {
              "internalType": "string",
              "name": "createdAt",
              "type": "string"
            },
            {
              "internalType": "address[]",
              "name": "issuers",
              "type": "address[]"
            }
          ],
          "internalType": "struct CertLib.Cert",
          "name": "",
          "type": "tuple"
        }
      ],
      "stateMutability": "view",
      "type": "function",
      "constant": true
    },
    {
      "inputs": [
        {
          "components": [
            {
              "internalType": "uint256",
              "name": "id",
              "type": "uint256"
            },
            {
              "internalType": "address",
              "name": "schoolId",
              "type": "address"
            },
            {
              "internalType": "string",
              "name": "regNo",
              "type": "string"
            },
            {
              "internalType": "uint256",
              "name": "batchId",
              "type": "uint256"
            },
            {
              "internalType": "string",
              "name": "batchRegNo",
              "type": "string"
            },
            {
              "internalType": "string",
              "name": "conferredOn",
              "type": "string"
            },
            {
              "internalType": "string",
              "name": "dateOfBirth",
              "type": "string"
            },
            {
              "internalType": "string",
              "name": "yearOfGraduation",
              "type": "string"
            },
            {
              "internalType": "string",
              "name": "majorIn",
              "type": "string"
            },
            {
              "internalType": "string",
              "name": "degreeOf",
              "type": "string"
            },
            {
              "internalType": "string",
              "name": "degreeClassification",
              "type": "string"
            },
            {
              "internalType": "string",
              "name": "modeOfStudy",
              "type": "string"
            },
            {
              "internalType": "string",
              "name": "createdIn",
              "type": "string"
            },
            {
              "internalType": "string",
              "name": "createdAt",
              "type": "string"
            },
            {
              "internalType": "address[]",
              "name": "issuers",
              "type": "address[]"
            }
          ],
          "internalType": "struct CertLib.Cert",
          "name": "_cert",
          "type": "tuple"
        }
      ],
      "name": "verifyCert",
      "outputs": [
        {
          "internalType": "bool",
          "name": "",
          "type": "bool"
        },
        {
          "components": [
            {
              "internalType": "string",
              "name": "id",
              "type": "string"
            },
            {
              "internalType": "string",
              "name": "name",
              "type": "string"
            },
            {
              "internalType": "string",
              "name": "email",
              "type": "string"
            }
          ],
          "internalType": "struct CertLib.Issuer[]",
          "name": "",
          "type": "tuple[]"
        }
      ],
      "stateMutability": "view",
      "type": "function",
      "constant": true
    }
  ],
  "bytecode": "0x608060405234801561001057600080fd5b50613ad5806100206000396000f3fe608060405234801561001057600080fd5b506004361061009e5760003560e01c8063c9329b7a11610066578063c9329b7a14610158578063e93731ec14610174578063ec0216c914610190578063edd4c1f1146101ac578063f0de64dc146101dc5761009e565b806303d49024146100a357806330e6267b146100bf57806351d544f0146100db5780639d5af0f21461010c578063a3c2b4f31461013c575b600080fd5b6100bd60048036038101906100b89190612938565b61020c565b005b6100d960048036038101906100d49190612a39565b61046a565b005b6100f560048036038101906100f09190612938565b610533565b604051610103929190612c45565b60405180910390f35b61012660048036038101906101219190612c75565b610fe5565b6040516101339190612f12565b60405180910390f35b610156600480360381019061015191906130cd565b61178f565b005b610172600480360381019061016d91906131f7565b611898565b005b61018e60048036038101906101899190613321565b6119a1565b005b6101aa60048036038101906101a5919061336a565b611ca8565b005b6101c660048036038101906101c191906133b3565b611d71565b6040516101d3919061346d565b60405180910390f35b6101f660048036038101906101f191906133b3565b611f9d565b60405161020391906134ed565b60405180910390f35b600033905060008260000151905082600360008473ffffffffffffffffffffffffffffffffffffffff1673ffffffffffffffffffffffffffffffffffffffff16815260200190815260200160002060008381526020019081526020016000206000820151816000015560208201518160010160006101000a81548173ffffffffffffffffffffffffffffffffffffffff021916908373ffffffffffffffffffffffffffffffffffffffff16021790555060408201518160020190805190602001906102d89291906121c9565b506060820151816003015560808201518160040190805190602001906102ff9291906121c9565b5060a082015181600501908051906020019061031c9291906121c9565b5060c08201518160060190805190602001906103399291906121c9565b5060e08201518160070190805190602001906103569291906121c9565b506101008201518160080190805190602001906103749291906121c9565b506101208201518160090190805190602001906103929291906121c9565b5061014082015181600a0190805190602001906103b09291906121c9565b5061016082015181600b0190805190602001906103ce9291906121c9565b5061018082015181600c0190805190602001906103ec9291906121c9565b506101a082015181600d01908051906020019061040a9291906121c9565b506101c082015181600e01908051906020019061042892919061224f565b509050507f20af674c6a23775734d862bb2fde9df67f0819e47877666c5102840003e0333b828260405161045d92919061352d565b60405180910390a1505050565b600033905060008260000151905082600260008473ffffffffffffffffffffffffffffffffffffffff1673ffffffffffffffffffffffffffffffffffffffff168152602001908152602001600020826040516104c69190613592565b908152602001604051809103902060008201518160000190805190602001906104f09291906121c9565b50602082015181600101908051906020019061050d9291906121c9565b50604082015181600201908051906020019061052a9291906121c9565b50905050505050565b600060606000836020015190506000846000015190506000600360008473ffffffffffffffffffffffffffffffffffffffff1673ffffffffffffffffffffffffffffffffffffffff1681526020019081526020016000206000838152602001908152602001600020604051806101e0016040529081600082015481526020016001820160009054906101000a900473ffffffffffffffffffffffffffffffffffffffff1673ffffffffffffffffffffffffffffffffffffffff1673ffffffffffffffffffffffffffffffffffffffff168152602001600282018054610617906135d8565b80601f0160208091040260200160405190810160405280929190818152602001828054610643906135d8565b80156106905780601f1061066557610100808354040283529160200191610690565b820191906000526020600020905b81548152906001019060200180831161067357829003601f168201915b50505050508152602001600382015481526020016004820180546106b3906135d8565b80601f01602080910402602001604051908101604052809291908181526020018280546106df906135d8565b801561072c5780601f106107015761010080835404028352916020019161072c565b820191906000526020600020905b81548152906001019060200180831161070f57829003601f168201915b50505050508152602001600582018054610745906135d8565b80601f0160208091040260200160405190810160405280929190818152602001828054610771906135d8565b80156107be5780601f10610793576101008083540402835291602001916107be565b820191906000526020600020905b8154815290600101906020018083116107a157829003601f168201915b505050505081526020016006820180546107d7906135d8565b80601f0160208091040260200160405190810160405280929190818152602001828054610803906135d8565b80156108505780601f1061082557610100808354040283529160200191610850565b820191906000526020600020905b81548152906001019060200180831161083357829003601f168201915b50505050508152602001600782018054610869906135d8565b80601f0160208091040260200160405190810160405280929190818152602001828054610895906135d8565b80156108e25780601f106108b7576101008083540402835291602001916108e2565b820191906000526020600020905b8154815290600101906020018083116108c557829003601f168201915b505050505081526020016008820180546108fb906135d8565b80601f0160208091040260200160405190810160405280929190818152602001828054610927906135d8565b80156109745780601f1061094957610100808354040283529160200191610974565b820191906000526020600020905b81548152906001019060200180831161095757829003601f168201915b5050505050815260200160098201805461098d906135d8565b80601f01602080910402602001604051908101604052809291908181526020018280546109b9906135d8565b8015610a065780601f106109db57610100808354040283529160200191610a06565b820191906000526020600020905b8154815290600101906020018083116109e957829003601f168201915b50505050508152602001600a82018054610a1f906135d8565b80601f0160208091040260200160405190810160405280929190818152602001828054610a4b906135d8565b8015610a985780601f10610a6d57610100808354040283529160200191610a98565b820191906000526020600020905b815481529060010190602001808311610a7b57829003601f168201915b50505050508152602001600b82018054610ab1906135d8565b80601f0160208091040260200160405190810160405280929190818152602001828054610add906135d8565b8015610b2a5780601f10610aff57610100808354040283529160200191610b2a565b820191906000526020600020905b815481529060010190602001808311610b0d57829003601f168201915b50505050508152602001600c82018054610b43906135d8565b80601f0160208091040260200160405190810160405280929190818152602001828054610b6f906135d8565b8015610bbc5780601f10610b9157610100808354040283529160200191610bbc565b820191906000526020600020905b815481529060010190602001808311610b9f57829003601f168201915b50505050508152602001600d82018054610bd5906135d8565b80601f0160208091040260200160405190810160405280929190818152602001828054610c01906135d8565b8015610c4e5780601f10610c2357610100808354040283529160200191610c4e565b820191906000526020600020905b815481529060010190602001808311610c3157829003601f168201915b50505050508152602001600e8201805480602002602001604051908101604052809291908181526020018280548015610cdc57602002820191906000526020600020905b8160009054906101000a900473ffffffffffffffffffffffffffffffffffffffff1673ffffffffffffffffffffffffffffffffffffffff1681526020019060010190808311610c92575b5050505050815250509050600073__CertLib_______________________________6304851c2b83896040518363ffffffff1660e01b8152600401610d22929190613889565b602060405180830381865af4158015610d3f573d6000803e3d6000fd5b505050506040513d601f19601f82011682018060405250810190610d6391906138ec565b905060608115610fd55760005b836101c0015151811015610fd3576000806000866101c001518481518110610d9b57610d9a613919565b5b602002602001015173ffffffffffffffffffffffffffffffffffffffff1673ffffffffffffffffffffffffffffffffffffffff168152602001908152602001600020604051806060016040529081600082018054610df8906135d8565b80601f0160208091040260200160405190810160405280929190818152602001828054610e24906135d8565b8015610e715780601f10610e4657610100808354040283529160200191610e71565b820191906000526020600020905b815481529060010190602001808311610e5457829003601f168201915b50505050508152602001600182018054610e8a906135d8565b80601f0160208091040260200160405190810160405280929190818152602001828054610eb6906135d8565b8015610f035780601f10610ed857610100808354040283529160200191610f03565b820191906000526020600020905b815481529060010190602001808311610ee657829003601f168201915b50505050508152602001600282018054610f1c906135d8565b80601f0160208091040260200160405190810160405280929190818152602001828054610f48906135d8565b8015610f955780601f10610f6a57610100808354040283529160200191610f95565b820191906000526020600020905b815481529060010190602001808311610f7857829003601f168201915b505050505081525050905080838381518110610fb457610fb3613919565b5b6020026020010181905250508080610fcb90613977565b915050610d70565b505b8181965096505050505050915091565b610fed6122d9565b600360008473ffffffffffffffffffffffffffffffffffffffff1673ffffffffffffffffffffffffffffffffffffffff1681526020019081526020016000206000838152602001908152602001600020604051806101e0016040529081600082015481526020016001820160009054906101000a900473ffffffffffffffffffffffffffffffffffffffff1673ffffffffffffffffffffffffffffffffffffffff1673ffffffffffffffffffffffffffffffffffffffff1681526020016002820180546110b9906135d8565b80601f01602080910402602001604051908101604052809291908181526020018280546110e5906135d8565b80156111325780601f1061110757610100808354040283529160200191611132565b820191906000526020600020905b81548152906001019060200180831161111557829003601f168201915b5050505050815260200160038201548152602001600482018054611155906135d8565b80601f0160208091040260200160405190810160405280929190818152602001828054611181906135d8565b80156111ce5780601f106111a3576101008083540402835291602001916111ce565b820191906000526020600020905b8154815290600101906020018083116111b157829003601f168201915b505050505081526020016005820180546111e7906135d8565b80601f0160208091040260200160405190810160405280929190818152602001828054611213906135d8565b80156112605780601f1061123557610100808354040283529160200191611260565b820191906000526020600020905b81548152906001019060200180831161124357829003601f168201915b50505050508152602001600682018054611279906135d8565b80601f01602080910402602001604051908101604052809291908181526020018280546112a5906135d8565b80156112f25780601f106112c7576101008083540402835291602001916112f2565b820191906000526020600020905b8154815290600101906020018083116112d557829003601f168201915b5050505050815260200160078201805461130b906135d8565b80601f0160208091040260200160405190810160405280929190818152602001828054611337906135d8565b80156113845780601f1061135957610100808354040283529160200191611384565b820191906000526020600020905b81548152906001019060200180831161136757829003601f168201915b5050505050815260200160088201805461139d906135d8565b80601f01602080910402602001604051908101604052809291908181526020018280546113c9906135d8565b80156114165780601f106113eb57610100808354040283529160200191611416565b820191906000526020600020905b8154815290600101906020018083116113f957829003601f168201915b5050505050815260200160098201805461142f906135d8565b80601f016020809104026020016040519081016040528092919081815260200182805461145b906135d8565b80156114a85780601f1061147d576101008083540402835291602001916114a8565b820191906000526020600020905b81548152906001019060200180831161148b57829003601f168201915b50505050508152602001600a820180546114c1906135d8565b80601f01602080910402602001604051908101604052809291908181526020018280546114ed906135d8565b801561153a5780601f1061150f5761010080835404028352916020019161153a565b820191906000526020600020905b81548152906001019060200180831161151d57829003601f168201915b50505050508152602001600b82018054611553906135d8565b80601f016020809104026020016040519081016040528092919081815260200182805461157f906135d8565b80156115cc5780601f106115a1576101008083540402835291602001916115cc565b820191906000526020600020905b8154815290600101906020018083116115af57829003601f168201915b50505050508152602001600c820180546115e5906135d8565b80601f0160208091040260200160405190810160405280929190818152602001828054611611906135d8565b801561165e5780601f106116335761010080835404028352916020019161165e565b820191906000526020600020905b81548152906001019060200180831161164157829003601f168201915b50505050508152602001600d82018054611677906135d8565b80601f01602080910402602001604051908101604052809291908181526020018280546116a3906135d8565b80156116f05780601f106116c5576101008083540402835291602001916116f0565b820191906000526020600020905b8154815290600101906020018083116116d357829003601f168201915b50505050508152602001600e820180548060200260200160405190810160405280929190818152602001828054801561177e57602002820191906000526020600020905b8160009054906101000a900473ffffffffffffffffffffffffffffffffffffffff1673ffffffffffffffffffffffffffffffffffffffff1681526020019060010190808311611734575b505050505081525050905092915050565b600033905060005b82518110156118935760008382815181106117b5576117b4613919565b5b6020026020010151905060008160000151905081600160008673ffffffffffffffffffffffffffffffffffffffff1673ffffffffffffffffffffffffffffffffffffffff168152602001908152602001600020826040516118169190613592565b908152602001604051809103902060008201518160000190805190602001906118409291906121c9565b50602082015181600101908051906020019061185d9291906121c9565b50604082015181600201908051906020019061187a9291906121c9565b509050505050808061188b90613977565b915050611797565b505050565b600033905060005b825181101561199c5760008382815181106118be576118bd613919565b5b6020026020010151905060008160000151905081600260008673ffffffffffffffffffffffffffffffffffffffff1673ffffffffffffffffffffffffffffffffffffffff1681526020019081526020016000208260405161191f9190613592565b908152602001604051809103902060008201518160000190805190602001906119499291906121c9565b5060208201518160010190805190602001906119669291906121c9565b5060408201518160020190805190602001906119839291906121c9565b509050505050808061199490613977565b9150506118a0565b505050565b6000815167ffffffffffffffff8111156119be576119bd6123ee565b5b6040519080825280602002602001820160405280156119ec5781602001602082028036833780820191505090505b50905060005b8251811015611c6a576000838281518110611a1057611a0f613919565b5b6020026020010151905060008160000151905081600360003373ffffffffffffffffffffffffffffffffffffffff1673ffffffffffffffffffffffffffffffffffffffff16815260200190815260200160002060008381526020019081526020016000206000820151816000015560208201518160010160006101000a81548173ffffffffffffffffffffffffffffffffffffffff021916908373ffffffffffffffffffffffffffffffffffffffff1602179055506040820151816002019080519060200190611ae19291906121c9565b50606082015181600301556080820151816004019080519060200190611b089291906121c9565b5060a0820151816005019080519060200190611b259291906121c9565b5060c0820151816006019080519060200190611b429291906121c9565b5060e0820151816007019080519060200190611b5f9291906121c9565b50610100820151816008019080519060200190611b7d9291906121c9565b50610120820151816009019080519060200190611b9b9291906121c9565b5061014082015181600a019080519060200190611bb99291906121c9565b5061016082015181600b019080519060200190611bd79291906121c9565b5061018082015181600c019080519060200190611bf59291906121c9565b506101a082015181600d019080519060200190611c139291906121c9565b506101c082015181600e019080519060200190611c3192919061224f565b5090505080848481518110611c4957611c48613919565b5b60200260200101818152505050508080611c6290613977565b9150506119f2565b507f7ce88c4a2629b7de29ec11b35d32bf6262db86805887911dc55da2b538a642f13382604051611c9c929190613a6f565b60405180910390a15050565b600033905060008260000151905082600160008473ffffffffffffffffffffffffffffffffffffffff1673ffffffffffffffffffffffffffffffffffffffff16815260200190815260200160002082604051611d049190613592565b90815260200160405180910390206000820151816000019080519060200190611d2e9291906121c9565b506020820151816001019080519060200190611d4b9291906121c9565b506040820151816002019080519060200190611d689291906121c9565b50905050505050565b611d79612365565b600260008473ffffffffffffffffffffffffffffffffffffffff1673ffffffffffffffffffffffffffffffffffffffff16815260200190815260200160002082604051611dc69190613592565b9081526020016040518091039020604051806060016040529081600082018054611def906135d8565b80601f0160208091040260200160405190810160405280929190818152602001828054611e1b906135d8565b8015611e685780601f10611e3d57610100808354040283529160200191611e68565b820191906000526020600020905b815481529060010190602001808311611e4b57829003601f168201915b50505050508152602001600182018054611e81906135d8565b80601f0160208091040260200160405190810160405280929190818152602001828054611ead906135d8565b8015611efa5780601f10611ecf57610100808354040283529160200191611efa565b820191906000526020600020905b815481529060010190602001808311611edd57829003601f168201915b50505050508152602001600282018054611f13906135d8565b80601f0160208091040260200160405190810160405280929190818152602001828054611f3f906135d8565b8015611f8c5780601f10611f6157610100808354040283529160200191611f8c565b820191906000526020600020905b815481529060010190602001808311611f6f57829003601f168201915b505050505081525050905092915050565b611fa5612386565b600160008473ffffffffffffffffffffffffffffffffffffffff1673ffffffffffffffffffffffffffffffffffffffff16815260200190815260200160002082604051611ff29190613592565b908152602001604051809103902060405180606001604052908160008201805461201b906135d8565b80601f0160208091040260200160405190810160405280929190818152602001828054612047906135d8565b80156120945780601f1061206957610100808354040283529160200191612094565b820191906000526020600020905b81548152906001019060200180831161207757829003601f168201915b505050505081526020016001820180546120ad906135d8565b80601f01602080910402602001604051908101604052809291908181526020018280546120d9906135d8565b80156121265780601f106120fb57610100808354040283529160200191612126565b820191906000526020600020905b81548152906001019060200180831161210957829003601f168201915b5050505050815260200160028201805461213f906135d8565b80601f016020809104026020016040519081016040528092919081815260200182805461216b906135d8565b80156121b85780601f1061218d576101008083540402835291602001916121b8565b820191906000526020600020905b81548152906001019060200180831161219b57829003601f168201915b505050505081525050905092915050565b8280546121d5906135d8565b90600052602060002090601f0160209004810192826121f7576000855561223e565b82601f1061221057805160ff191683800117855561223e565b8280016001018555821561223e579182015b8281111561223d578251825591602001919060010190612222565b5b50905061224b91906123a7565b5090565b8280548282559060005260206000209081019282156122c8579160200282015b828111156122c75782518260006101000a81548173ffffffffffffffffffffffffffffffffffffffff021916908373ffffffffffffffffffffffffffffffffffffffff1602179055509160200191906001019061226f565b5b5090506122d591906123a7565b5090565b604051806101e0016040528060008152602001600073ffffffffffffffffffffffffffffffffffffffff168152602001606081526020016000815260200160608152602001606081526020016060815260200160608152602001606081526020016060815260200160608152602001606081526020016060815260200160608152602001606081525090565b60405180606001604052806060815260200160608152602001606081525090565b60405180606001604052806060815260200160608152602001606081525090565b5b808211156123c05760008160009055506001016123a8565b5090565b6000604051905090565b600080fd5b600080fd5b600080fd5b6000601f19601f8301169050919050565b7f4e487b7100000000000000000000000000000000000000000000000000000000600052604160045260246000fd5b612426826123dd565b810181811067ffffffffffffffff82111715612445576124446123ee565b5b80604052505050565b60006124586123c4565b9050612464828261241d565b919050565b600080fd5b6000819050919050565b6124818161246e565b811461248c57600080fd5b50565b60008135905061249e81612478565b92915050565b600073ffffffffffffffffffffffffffffffffffffffff82169050919050565b60006124cf826124a4565b9050919050565b6124df816124c4565b81146124ea57600080fd5b50565b6000813590506124fc816124d6565b92915050565b600080fd5b600080fd5b600067ffffffffffffffff821115612527576125266123ee565b5b612530826123dd565b9050602081019050919050565b82818337600083830152505050565b600061255f61255a8461250c565b61244e565b90508281526020810184848401111561257b5761257a612507565b5b61258684828561253d565b509392505050565b600082601f8301126125a3576125a2612502565b5b81356125b384826020860161254c565b91505092915050565b600067ffffffffffffffff8211156125d7576125d66123ee565b5b602082029050602081019050919050565b600080fd5b60006126006125fb846125bc565b61244e565b90508083825260208201905060208402830185811115612623576126226125e8565b5b835b8181101561264c578061263888826124ed565b845260208401935050602081019050612625565b5050509392505050565b600082601f83011261266b5761266a612502565b5b813561267b8482602086016125ed565b91505092915050565b60006101e0828403121561269b5761269a6123d8565b5b6126a66101e061244e565b905060006126b68482850161248f565b60008301525060206126ca848285016124ed565b602083015250604082013567ffffffffffffffff8111156126ee576126ed612469565b5b6126fa8482850161258e565b604083015250606061270e8482850161248f565b606083015250608082013567ffffffffffffffff81111561273257612731612469565b5b61273e8482850161258e565b60808301525060a082013567ffffffffffffffff81111561276257612761612469565b5b61276e8482850161258e565b60a08301525060c082013567ffffffffffffffff81111561279257612791612469565b5b61279e8482850161258e565b60c08301525060e082013567ffffffffffffffff8111156127c2576127c1612469565b5b6127ce8482850161258e565b60e08301525061010082013567ffffffffffffffff8111156127f3576127f2612469565b5b6127ff8482850161258e565b6101008301525061012082013567ffffffffffffffff81111561282557612824612469565b5b6128318482850161258e565b6101208301525061014082013567ffffffffffffffff81111561285757612856612469565b5b6128638482850161258e565b6101408301525061016082013567ffffffffffffffff81111561288957612888612469565b5b6128958482850161258e565b6101608301525061018082013567ffffffffffffffff8111156128bb576128ba612469565b5b6128c78482850161258e565b610180830152506101a082013567ffffffffffffffff8111156128ed576128ec612469565b5b6128f98482850161258e565b6101a0830152506101c082013567ffffffffffffffff81111561291f5761291e612469565b5b61292b84828501612656565b6101c08301525092915050565b60006020828403121561294e5761294d6123ce565b5b600082013567ffffffffffffffff81111561296c5761296b6123d3565b5b61297884828501612684565b91505092915050565b600060608284031215612997576129966123d8565b5b6129a1606061244e565b9050600082013567ffffffffffffffff8111156129c1576129c0612469565b5b6129cd8482850161258e565b600083015250602082013567ffffffffffffffff8111156129f1576129f0612469565b5b6129fd8482850161258e565b602083015250604082013567ffffffffffffffff811115612a2157612a20612469565b5b612a2d8482850161258e565b60408301525092915050565b600060208284031215612a4f57612a4e6123ce565b5b600082013567ffffffffffffffff811115612a6d57612a6c6123d3565b5b612a7984828501612981565b91505092915050565b60008115159050919050565b612a9781612a82565b82525050565b600081519050919050565b600082825260208201905092915050565b6000819050602082019050919050565b600081519050919050565b600082825260208201905092915050565b60005b83811015612b03578082015181840152602081019050612ae8565b83811115612b12576000848401525b50505050565b6000612b2382612ac9565b612b2d8185612ad4565b9350612b3d818560208601612ae5565b612b46816123dd565b840191505092915050565b60006060830160008301518482036000860152612b6e8282612b18565b91505060208301518482036020860152612b888282612b18565b91505060408301518482036040860152612ba28282612b18565b9150508091505092915050565b6000612bbb8383612b51565b905092915050565b6000602082019050919050565b6000612bdb82612a9d565b612be58185612aa8565b935083602082028501612bf785612ab9565b8060005b85811015612c335784840389528151612c148582612baf565b9450612c1f83612bc3565b925060208a01995050600181019050612bfb565b50829750879550505050505092915050565b6000604082019050612c5a6000830185612a8e565b8181036020830152612c6c8184612bd0565b90509392505050565b60008060408385031215612c8c57612c8b6123ce565b5b6000612c9a858286016124ed565b9250506020612cab8582860161248f565b9150509250929050565b612cbe8161246e565b82525050565b612ccd816124c4565b82525050565b600081519050919050565b600082825260208201905092915050565b6000819050602082019050919050565b6000612d0b8383612cc4565b60208301905092915050565b6000602082019050919050565b6000612d2f82612cd3565b612d398185612cde565b9350612d4483612cef565b8060005b83811015612d75578151612d5c8882612cff565b9750612d6783612d17565b925050600181019050612d48565b5085935050505092915050565b60006101e083016000830151612d9b6000860182612cb5565b506020830151612dae6020860182612cc4565b5060408301518482036040860152612dc68282612b18565b9150506060830151612ddb6060860182612cb5565b5060808301518482036080860152612df38282612b18565b91505060a083015184820360a0860152612e0d8282612b18565b91505060c083015184820360c0860152612e278282612b18565b91505060e083015184820360e0860152612e418282612b18565b915050610100830151848203610100860152612e5d8282612b18565b915050610120830151848203610120860152612e798282612b18565b915050610140830151848203610140860152612e958282612b18565b915050610160830151848203610160860152612eb18282612b18565b915050610180830151848203610180860152612ecd8282612b18565b9150506101a08301518482036101a0860152612ee98282612b18565b9150506101c08301518482036101c0860152612f058282612d24565b9150508091505092915050565b60006020820190508181036000830152612f2c8184612d82565b905092915050565b600067ffffffffffffffff821115612f4f57612f4e6123ee565b5b602082029050602081019050919050565b600060608284031215612f7657612f756123d8565b5b612f80606061244e565b9050600082013567ffffffffffffffff811115612fa057612f9f612469565b5b612fac8482850161258e565b600083015250602082013567ffffffffffffffff811115612fd057612fcf612469565b5b612fdc8482850161258e565b602083015250604082013567ffffffffffffffff81111561300057612fff612469565b5b61300c8482850161258e565b60408301525092915050565b600061302b61302684612f34565b61244e565b9050808382526020820190506020840283018581111561304e5761304d6125e8565b5b835b8181101561309557803567ffffffffffffffff81111561307357613072612502565b5b8086016130808982612f60565b85526020850194505050602081019050613050565b5050509392505050565b600082601f8301126130b4576130b3612502565b5b81356130c4848260208601613018565b91505092915050565b6000602082840312156130e3576130e26123ce565b5b600082013567ffffffffffffffff811115613101576131006123d3565b5b61310d8482850161309f565b91505092915050565b600067ffffffffffffffff821115613131576131306123ee565b5b602082029050602081019050919050565b600061315561315084613116565b61244e565b90508083825260208201905060208402830185811115613178576131776125e8565b5b835b818110156131bf57803567ffffffffffffffff81111561319d5761319c612502565b5b8086016131aa8982612981565b8552602085019450505060208101905061317a565b5050509392505050565b600082601f8301126131de576131dd612502565b5b81356131ee848260208601613142565b91505092915050565b60006020828403121561320d5761320c6123ce565b5b600082013567ffffffffffffffff81111561322b5761322a6123d3565b5b613237848285016131c9565b91505092915050565b600067ffffffffffffffff82111561325b5761325a6123ee565b5b602082029050602081019050919050565b600061327f61327a84613240565b61244e565b905080838252602082019050602084028301858111156132a2576132a16125e8565b5b835b818110156132e957803567ffffffffffffffff8111156132c7576132c6612502565b5b8086016132d48982612684565b855260208501945050506020810190506132a4565b5050509392505050565b600082601f83011261330857613307612502565b5b813561331884826020860161326c565b91505092915050565b600060208284031215613337576133366123ce565b5b600082013567ffffffffffffffff811115613355576133546123d3565b5b613361848285016132f3565b91505092915050565b6000602082840312156133805761337f6123ce565b5b600082013567ffffffffffffffff81111561339e5761339d6123d3565b5b6133aa84828501612f60565b91505092915050565b600080604083850312156133ca576133c96123ce565b5b60006133d8858286016124ed565b925050602083013567ffffffffffffffff8111156133f9576133f86123d3565b5b6134058582860161258e565b9150509250929050565b6000606083016000830151848203600086015261342c8282612b18565b915050602083015184820360208601526134468282612b18565b915050604083015184820360408601526134608282612b18565b9150508091505092915050565b60006020820190508181036000830152613487818461340f565b905092915050565b600060608301600083015184820360008601526134ac8282612b18565b915050602083015184820360208601526134c68282612b18565b915050604083015184820360408601526134e08282612b18565b9150508091505092915050565b60006020820190508181036000830152613507818461348f565b905092915050565b613518816124c4565b82525050565b6135278161246e565b82525050565b6000604082019050613542600083018561350f565b61354f602083018461351e565b9392505050565b600081905092915050565b600061356c82612ac9565b6135768185613556565b9350613586818560208601612ae5565b80840191505092915050565b600061359e8284613561565b915081905092915050565b7f4e487b7100000000000000000000000000000000000000000000000000000000600052602260045260246000fd5b600060028204905060018216806135f057607f821691505b60208210811415613604576136036135a9565b5b50919050565b6136138161246e565b82525050565b613622816124c4565b82525050565b600082825260208201905092915050565b600061364482612ac9565b61364e8185613628565b935061365e818560208601612ae5565b613667816123dd565b840191505092915050565b600082825260208201905092915050565b600061368f8383613619565b60208301905092915050565b60006136a682612cd3565b6136b08185613672565b93506136bb83612cef565b8060005b838110156136ec5781516136d38882613683565b97506136de83612d17565b9250506001810190506136bf565b5085935050505092915050565b60006101e083016000830151613712600086018261360a565b5060208301516137256020860182613619565b506040830151848203604086015261373d8282613639565b9150506060830151613752606086018261360a565b506080830151848203608086015261376a8282613639565b91505060a083015184820360a08601526137848282613639565b91505060c083015184820360c086015261379e8282613639565b91505060e083015184820360e08601526137b88282613639565b9150506101008301518482036101008601526137d48282613639565b9150506101208301518482036101208601526137f08282613639565b91505061014083015184820361014086015261380c8282613639565b9150506101608301518482036101608601526138288282613639565b9150506101808301518482036101808601526138448282613639565b9150506101a08301518482036101a08601526138608282613639565b9150506101c08301518482036101c086015261387c828261369b565b9150508091505092915050565b600060408201905081810360008301526138a381856136f9565b905081810360208301526138b781846136f9565b90509392505050565b6138c981612a82565b81146138d457600080fd5b50565b6000815190506138e6816138c0565b92915050565b600060208284031215613902576139016123ce565b5b6000613910848285016138d7565b91505092915050565b7f4e487b7100000000000000000000000000000000000000000000000000000000600052603260045260246000fd5b7f4e487b7100000000000000000000000000000000000000000000000000000000600052601160045260246000fd5b60006139828261246e565b91507fffffffffffffffffffffffffffffffffffffffffffffffffffffffffffffffff8214156139b5576139b4613948565b5b600182019050919050565b600081519050919050565b600082825260208201905092915050565b6000819050602082019050919050565b60006139f88383612cb5565b60208301905092915050565b6000602082019050919050565b6000613a1c826139c0565b613a2681856139cb565b9350613a31836139dc565b8060005b83811015613a62578151613a4988826139ec565b9750613a5483613a04565b925050600181019050613a35565b5085935050505092915050565b6000604082019050613a84600083018561350f565b8181036020830152613a968184613a11565b9050939250505056fea2646970667358221220a5536667ede187f2e4c8ba24694c5fbba6a8f5e77bea6e16bd9052a1342e928464736f6c634300080a0033",
  "immutableReferences": {},
  "source": "// SPDX-License-Identifier: MIT\r\npragma solidity >=0.4.22 <0.9.0;\r\n\r\nimport { CertLib } from \"./CertLib.sol\";\r\n\r\n\r\ncontract Certs {\r\n\r\n    mapping(address => CertLib.Issuer) issuers; // address => issuer\r\n    mapping(address => mapping(string => CertLib.Student)) students; // (schoolId, studentId) => student\r\n    mapping(address => mapping(string => CertLib.Subject)) subjects; // (schoolId, subjectId) => subject\r\n    mapping(address => mapping(uint => CertLib.Cert)) certs; // (schoolId, certificateId) => certificate\r\n\r\n    event CertAdded(\r\n        address schoolId,\r\n        uint certId\r\n    );\r\n\r\n    event CertsAdded(\r\n        address schoolId,\r\n        uint[] certIds\r\n    );\r\n\r\n    function addStudents(CertLib.Student[] memory _students) public {\r\n        address schoolId = msg.sender;\r\n        for (uint i = 0; i < _students.length; i++) {\r\n            CertLib.Student memory student = _students[i];\r\n            string memory studentId = student.id;\r\n            students[schoolId][studentId] = student;\r\n        }\r\n    }\r\n\r\n    function addStudent(CertLib.Student memory _student) public {\r\n        address schoolId = msg.sender;\r\n        string memory studentId = _student.id;\r\n        students[schoolId][studentId] = _student;\r\n    }\r\n\r\n    function getStudent(address schoolId, string memory studentId) public view returns (CertLib.Student memory) {\r\n        return students[schoolId][studentId];\r\n    }\r\n\r\n    function addSubjects(CertLib.Subject[] memory _subjects) public {\r\n        address schoolId = msg.sender;\r\n        for (uint i = 0; i < _subjects.length; i++) {\r\n            CertLib.Subject memory subject = _subjects[i];\r\n            string memory subjectId = subject.id;\r\n            subjects[schoolId][subjectId] = subject;\r\n        }\r\n    }\r\n\r\n    function addSubject(CertLib.Subject memory _subject) public {\r\n        address schoolId = msg.sender;\r\n        string memory subjectId = _subject.id;\r\n        subjects[schoolId][subjectId] = _subject;\r\n    }\r\n\r\n    function getSubject(address schoolId, string memory subjectId) public view returns (CertLib.Subject memory) {\r\n        return subjects[schoolId][subjectId];\r\n    }\r\n\r\n    function addCerts(CertLib.Cert[] memory _certs) public {\r\n        uint[] memory certIds = new uint[](_certs.length);\r\n        for (uint i = 0; i < _certs.length; i++) {\r\n            CertLib.Cert memory cert = _certs[i];\r\n            uint certId = cert.id;\r\n            certs[msg.sender][certId] = cert;\r\n            certIds[i] = certId;\r\n        }\r\n        emit CertsAdded(msg.sender, certIds);\r\n    }\r\n\r\n    function addCert(CertLib.Cert memory _cert) public {\r\n        address schoolId = msg.sender;\r\n        uint certId = _cert.id;\r\n        certs[schoolId][certId] = _cert;\r\n        emit CertAdded(schoolId, certId);\r\n    }\r\n\r\n    function getCert(address schoolId, uint certId) public view returns (CertLib.Cert memory) {\r\n        return certs[schoolId][certId];\r\n    }\r\n\r\n    function verifyCert(CertLib.Cert memory _cert) public view returns (bool, CertLib.Issuer[] memory) {\r\n        address schoolId = _cert.schoolId;\r\n        uint certId = _cert.id;\r\n        CertLib.Cert memory cert = certs[schoolId][certId];\r\n        bool valid = CertLib.verifyCert(cert, _cert);\r\n        CertLib.Issuer[] memory foundIssuers;\r\n        if (valid) {\r\n            for (uint i = 0; i < cert.issuers.length; i++) {\r\n                CertLib.Issuer memory issuer = issuers[cert.issuers[i]];\r\n                foundIssuers[i] = issuer;\r\n            }\r\n        }\r\n        return (valid, foundIssuers);\r\n    }\r\n}\r\n",
  "sourcePath": "/home/vi/code/dcerts-manager/dcerts-core/contracts/Certs.sol",
  "compiler": {
    "name": "solc",
    "version": "0.8.10+commit.fc410830.Emscripten.clang"
  },
  "schemaVersion": "3.4.3",
  "updatedAt": "2022-02-06T16:23:20.927Z",
  "networkType": "ethereum",
  "devdoc": {
    "kind": "dev",
    "methods": {},
    "version": 1
  },
  "userdoc": {
    "kind": "user",
    "methods": {},
    "version": 1
  }
}